{
  "contractName": "Opinions",
  "abi": [
    {
      "inputs": [],
      "stateMutability": "nonpayable",
      "type": "constructor"
    },
    {
      "inputs": [],
      "name": "opinionCount",
      "outputs": [
        {
          "internalType": "uint256",
          "name": "",
          "type": "uint256"
        }
      ],
      "stateMutability": "view",
      "type": "function",
      "constant": true
    },
    {
      "inputs": [
        {
          "internalType": "uint256",
          "name": "",
          "type": "uint256"
        }
      ],
      "name": "opinions",
      "outputs": [
        {
          "internalType": "uint256",
          "name": "id",
          "type": "uint256"
        },
        {
          "internalType": "string",
          "name": "opinion",
          "type": "string"
        },
        {
          "internalType": "address",
          "name": "author",
          "type": "address"
        }
      ],
      "stateMutability": "view",
      "type": "function",
      "constant": true
    },
    {
      "inputs": [
        {
          "internalType": "string",
          "name": "_opinion",
          "type": "string"
        }
      ],
      "name": "opiniate",
      "outputs": [],
      "stateMutability": "nonpayable",
      "type": "function"
    },
    {
      "inputs": [
        {
          "internalType": "uint256",
          "name": "_opinionId",
          "type": "uint256"
        }
      ],
      "name": "likeOpinion",
      "outputs": [],
      "stateMutability": "nonpayable",
      "type": "function"
    },
    {
      "inputs": [
        {
          "internalType": "uint256",
          "name": "_opinionId",
          "type": "uint256"
        }
      ],
      "name": "getLikedAddresses",
      "outputs": [
        {
          "internalType": "address[]",
          "name": "",
          "type": "address[]"
        }
      ],
      "stateMutability": "view",
      "type": "function",
      "constant": true
    }
  ],
  "bytecode": "0x608060405234801561001057600080fd5b50600080819055506108df806100276000396000f3fe608060405234801561001057600080fd5b50600436106100575760003560e01c80631754b3151461005c57806351d78a771461012757806368d9b1c9146101e2578063a398fc9f14610200578063d4ebf84f14610283575b600080fd5b6100886004803603602081101561007257600080fd5b81019080803590602001909291905050506102b1565b60405180848152602001806020018373ffffffffffffffffffffffffffffffffffffffff168152602001828103825284818151815260200191508051906020019080838360005b838110156100ea5780820151818401526020810190506100cf565b50505050905090810190601f1680156101175780820380516001836020036101000a031916815260200191505b5094505050505060405180910390f35b6101e06004803603602081101561013d57600080fd5b810190808035906020019064010000000081111561015a57600080fd5b82018360208201111561016c57600080fd5b8035906020019184600183028401116401000000008311171561018e57600080fd5b91908080601f016020809104026020016040519081016040528093929190818152602001838380828437600081840152601f19601f820116905080830192505050505050509192919290505050610393565b005b6101ea610540565b6040518082815260200191505060405180910390f35b61022c6004803603602081101561021657600080fd5b8101908080359060200190929190505050610546565b6040518080602001828103825283818151815260200191508051906020019060200280838360005b8381101561026f578082015181840152602081019050610254565b505050509050019250505060405180910390f35b6102af6004803603602081101561029957600080fd5b810190808035906020019092919050505061066f565b005b6001602052806000526040600020600091509050806000015490806001018054600181600116156101000203166002900480601f0160208091040260200160405190810160405280929190818152602001828054600181600116156101000203166002900480156103635780601f1061033857610100808354040283529160200191610363565b820191906000526020600020905b81548152906001019060200180831161034657829003601f168201915b5050505050908060030160009054906101000a900473ffffffffffffffffffffffffffffffffffffffff16905083565b600081511161040a576040517f08c379a00000000000000000000000000000000000000000000000000000000081526004018080602001828103825260148152602001807f496e76616c69642f656d707479206f70696e6f6e00000000000000000000000081525060200191505060405180910390fd5b600080815480929190600101919050555060405180608001604052806000548152602001828152602001600067ffffffffffffffff8111801561044c57600080fd5b5060405190808252806020026020018201604052801561047b5781602001602082028036833780820191505090505b5081526020013373ffffffffffffffffffffffffffffffffffffffff1681525060016000805481526020019081526020016000206000820151816000015560208201518160010190805190602001906104d5929190610774565b5060408201518160020190805190602001906104f2929190610802565b5060608201518160030160006101000a81548173ffffffffffffffffffffffffffffffffffffffff021916908373ffffffffffffffffffffffffffffffffffffffff16021790555090505050565b60005481565b60606001821015801561055b57506000548211155b6105cd576040517f08c379a00000000000000000000000000000000000000000000000000000000081526004018080602001828103825260128152602001807f496e76616c6964206f70696e696f6e206964000000000000000000000000000081525060200191505060405180910390fd5b6001600083815260200190815260200160002060020180548060200260200160405190810160405280929190818152602001828054801561066357602002820191906000526020600020905b8160009054906101000a900473ffffffffffffffffffffffffffffffffffffffff1673ffffffffffffffffffffffffffffffffffffffff1681526020019060010190808311610619575b50505050509050919050565b6001811015801561068257506000548111155b6106f4576040517f08c379a00000000000000000000000000000000000000000000000000000000081526004018080602001828103825260128152602001807f496e76616c6964206f70696e696f6e206964000000000000000000000000000081525060200191505060405180910390fd5b600060016000838152602001908152602001600020905080600201339080600181540180825580915050600190039060005260206000200160009091909190916101000a81548173ffffffffffffffffffffffffffffffffffffffff021916908373ffffffffffffffffffffffffffffffffffffffff1602179055505050565b828054600181600116156101000203166002900490600052602060002090601f0160209004810192826107aa57600085556107f1565b82601f106107c357805160ff19168380011785556107f1565b828001600101855582156107f1579182015b828111156107f05782518255916020019190600101906107d5565b5b5090506107fe919061088c565b5090565b82805482825590600052602060002090810192821561087b579160200282015b8281111561087a5782518260006101000a81548173ffffffffffffffffffffffffffffffffffffffff021916908373ffffffffffffffffffffffffffffffffffffffff16021790555091602001919060010190610822565b5b509050610888919061088c565b5090565b5b808211156108a557600081600090555060010161088d565b509056fea2646970667358221220eb1e3b893b79e5374a77c3b5241b58b7791b8b69de11c2050d70b89eba3a3c0564736f6c63430007040033",
  "immutableReferences": {},
  "source": "// SPDX-License-Identifier: MIT\r\npragma solidity >=0.5.0 <=0.7.4;\r\n\r\ncontract Opinions {\r\n    uint256 public opinionCount;\r\n\r\n    struct Opinion {\r\n        uint256 id;\r\n        string opinion;\r\n        address[] likes;\r\n        address author;\r\n    }\r\n\r\n    constructor() {\r\n        opinionCount = 0;\r\n    }\r\n\r\n    mapping(uint256 => Opinion) public opinions;\r\n\r\n    function opiniate(string memory _opinion) public {\r\n        require(bytes(_opinion).length > 0, \"Invalid/empty opinon\");\r\n        opinionCount++;\r\n        opinions[opinionCount] = Opinion(\r\n            opinionCount,\r\n            _opinion,\r\n            new address[](0),\r\n            msg.sender\r\n        );\r\n    }\r\n\r\n    function likeOpinion(uint256 _opinionId) public {\r\n        require(\r\n            _opinionId >= 1 && _opinionId <= opinionCount,\r\n            \"Invalid opinion id\"\r\n        );\r\n        Opinion storage curOpinion = opinions[_opinionId];\r\n        curOpinion.likes.push(msg.sender);\r\n    }\r\n\r\n    function getLikedAddresses(uint256 _opinionId)\r\n        public\r\n        view\r\n        returns (address[] memory)\r\n    {\r\n        require(\r\n            _opinionId >= 1 && _opinionId <= opinionCount,\r\n            \"Invalid opinion id\"\r\n        );\r\n        return opinions[_opinionId].likes;\r\n    }\r\n}\r\n",
  "sourcePath": "F:/Prjcts/Opiniate/contracts/Opinions.sol",
  "compiler": {
    "name": "solc",
    "version": "0.7.4+commit.3f05b770.Emscripten.clang"
  },
  "schemaVersion": "3.3.3",
  "updatedAt": "2021-02-06T04:30:54.656Z",
  "networkType": "ethereum",
  "devdoc": {
    "kind": "dev",
    "methods": {},
    "version": 1
  },
  "userdoc": {
    "kind": "user",
    "methods": {},
    "version": 1
  }
}